{
	"data": {
		"bytecode": {
			"linkReferences": {},
			"object": "6080604052348015600e575f80fd5b5060b580601a5f395ff3fe608060405260043610601e575f3560e01c806312065fe0146026576024565b36602457005b005b3480156030575f80fd5b506037604b565b604051604291906068565b60405180910390f35b5f47905090565b5f819050919050565b6062816052565b82525050565b5f60208201905060795f830184605b565b9291505056fea26469706673582212209e19092021f69adf11b11fe69a1b59e2ec48d9671d84971746d6836ea8037ad364736f6c63430008190033",
			"opcodes": "PUSH1 0x80 PUSH1 0x40 MSTORE CALLVALUE DUP1 ISZERO PUSH1 0xE JUMPI PUSH0 DUP1 REVERT JUMPDEST POP PUSH1 0xB5 DUP1 PUSH1 0x1A PUSH0 CODECOPY PUSH0 RETURN INVALID PUSH1 0x80 PUSH1 0x40 MSTORE PUSH1 0x4 CALLDATASIZE LT PUSH1 0x1E JUMPI PUSH0 CALLDATALOAD PUSH1 0xE0 SHR DUP1 PUSH4 0x12065FE0 EQ PUSH1 0x26 JUMPI PUSH1 0x24 JUMP JUMPDEST CALLDATASIZE PUSH1 0x24 JUMPI STOP JUMPDEST STOP JUMPDEST CALLVALUE DUP1 ISZERO PUSH1 0x30 JUMPI PUSH0 DUP1 REVERT JUMPDEST POP PUSH1 0x37 PUSH1 0x4B JUMP JUMPDEST PUSH1 0x40 MLOAD PUSH1 0x42 SWAP2 SWAP1 PUSH1 0x68 JUMP JUMPDEST PUSH1 0x40 MLOAD DUP1 SWAP2 SUB SWAP1 RETURN JUMPDEST PUSH0 SELFBALANCE SWAP1 POP SWAP1 JUMP JUMPDEST PUSH0 DUP2 SWAP1 POP SWAP2 SWAP1 POP JUMP JUMPDEST PUSH1 0x62 DUP2 PUSH1 0x52 JUMP JUMPDEST DUP3 MSTORE POP POP JUMP JUMPDEST PUSH0 PUSH1 0x20 DUP3 ADD SWAP1 POP PUSH1 0x79 PUSH0 DUP4 ADD DUP5 PUSH1 0x5B JUMP JUMPDEST SWAP3 SWAP2 POP POP JUMP INVALID LOG2 PUSH5 0x6970667358 0x22 SLT KECCAK256 SWAP15 NOT MULMOD KECCAK256 0x21 0xF6 SWAP11 0xDF GT 0xB1 0x1F 0xE6 SWAP11 SHL MSIZE 0xE2 0xEC BASEFEE 0xD9 PUSH8 0x1D84971746D6836E 0xA8 SUB PUSH27 0xD364736F6C63430008190033000000000000000000000000000000 "
		},
		"gasEstimates": {
			"creation": {
				"codeDepositCost": "36200",
				"executionCost": "85",
				"totalCost": "36285"
			},
			"external": {
				"": "84",
				"getBalance()": "312"
			}
		},
		"methodIdentifiers": {
			"getBalance()": "12065fe0"
		}
	},
	"abi": [
		{
			"stateMutability": "payable",
			"type": "fallback"
		},
		{
			"inputs": [],
			"name": "getBalance",
			"outputs": [
				{
					"internalType": "uint256",
					"name": "",
					"type": "uint256"
				}
			],
			"stateMutability": "view",
			"type": "function"
		},
		{
			"stateMutability": "payable",
			"type": "receive"
		}
	]
}