{
	"data": {
		"bytecode": {
			"linkReferences": {},
			"object": "608060405234801561000f575f80fd5b505f60405180608001604052806040518060400160405280601081526020017f4e69636f6c6175202d3e2048616e61650000000000000000000000000000000081525081526020016040518060400160405280601281526020017f48616e6165202d3e204265746f6e65697261000000000000000000000000000081525081526020016040518060400160405280601681526020017f4661726f6661202d3e204f75726f204a61636b736f6e0000000000000000000081525081526020016040518060400160405280600c81526020017f4d6172696f202d3e2041747a000000000000000000000000000000000000000081525081525090505f5b6004811015610182575f8282600481106101275761012661028c565b5b602002015160405160200161013c919061030b565b60405160208183030381529060405280519060200120908060018154018082558091505060019003905f5260205f20015f9091909190915055808060010191505061010a565b505f600490505f5b5f821115610284575f5b6001836101a19190610357565b811015610261575f8082846101b6919061038a565b815481106101c7576101c661028c565b5b905f5260205f2001545f600184866101df919061038a565b6101e9919061038a565b815481106101fa576101f961028c565b5b905f5260205f2001546040516020016102149291906103e6565b60405160208183030381529060405280519060200120908060018154018082558091505060019003905f5260205f20015f909190919091505560028161025a919061038a565b9050610194565b50818161026e919061038a565b905060028261027d919061043e565b915061018a565b50505061046e565b7f4e487b71000000000000000000000000000000000000000000000000000000005f52603260045260245ffd5b5f81519050919050565b5f81905092915050565b8281835e5f83830152505050565b5f6102e5826102b9565b6102ef81856102c3565b93506102ff8185602086016102cd565b80840191505092915050565b5f61031682846102db565b915081905092915050565b5f819050919050565b7f4e487b71000000000000000000000000000000000000000000000000000000005f52601160045260245ffd5b5f61036182610321565b915061036c83610321565b92508282039050818111156103845761038361032a565b5b92915050565b5f61039482610321565b915061039f83610321565b92508282019050808211156103b7576103b661032a565b5b92915050565b5f819050919050565b5f819050919050565b6103e06103db826103bd565b6103c6565b82525050565b5f6103f182856103cf565b60208201915061040182846103cf565b6020820191508190509392505050565b7f4e487b71000000000000000000000000000000000000000000000000000000005f52601260045260245ffd5b5f61044882610321565b915061045383610321565b92508261046357610462610411565b5b828204905092915050565b6106438061047b5f395ff3fe608060405234801561000f575f80fd5b506004361061003f575f3560e01c806321fb335c14610043578063501895ae146100735780635ca1e165146100a3575b5f80fd5b61005d600480360381019061005891906103a2565b6100c1565b60405161006a919061043c565b60405180910390f35b61008d60048036038101906100889190610455565b61018a565b60405161009a919061048f565b60405180910390f35b6100ab6101a9565b6040516100b8919061048f565b60405180910390f35b5f808390505f5b865181101561017b575f8782815181106100e5576100e46104a8565b5b602002602001015190505f6002866100fd9190610502565b03610132578281604051602001610115929190610552565b60405160208183030381529060405280519060200120925061015e565b8083604051602001610145929190610552565b6040516020818303038152906040528051906020012092505b60028561016b91906105aa565b94505080806001019150506100c8565b50848114915050949350505050565b5f8181548110610198575f80fd5b905f5260205f20015f915090505481565b5f8060015f805490506101bc91906105da565b815481106101cd576101cc6104a8565b5b905f5260205f200154905090565b5f604051905090565b5f80fd5b5f80fd5b5f80fd5b5f601f19601f8301169050919050565b7f4e487b71000000000000000000000000000000000000000000000000000000005f52604160045260245ffd5b610236826101f0565b810181811067ffffffffffffffff8211171561025557610254610200565b5b80604052505050565b5f6102676101db565b9050610273828261022d565b919050565b5f67ffffffffffffffff82111561029257610291610200565b5b602082029050602081019050919050565b5f80fd5b5f819050919050565b6102b9816102a7565b81146102c3575f80fd5b50565b5f813590506102d4816102b0565b92915050565b5f6102ec6102e784610278565b61025e565b9050808382526020820190506020840283018581111561030f5761030e6102a3565b5b835b81811015610338578061032488826102c6565b845260208401935050602081019050610311565b5050509392505050565b5f82601f830112610356576103556101ec565b5b81356103668482602086016102da565b91505092915050565b5f819050919050565b6103818161036f565b811461038b575f80fd5b50565b5f8135905061039c81610378565b92915050565b5f805f80608085870312156103ba576103b96101e4565b5b5f85013567ffffffffffffffff8111156103d7576103d66101e8565b5b6103e387828801610342565b94505060206103f4878288016102c6565b9350506040610405878288016102c6565b92505060606104168782880161038e565b91505092959194509250565b5f8115159050919050565b61043681610422565b82525050565b5f60208201905061044f5f83018461042d565b92915050565b5f6020828403121561046a576104696101e4565b5b5f6104778482850161038e565b91505092915050565b610489816102a7565b82525050565b5f6020820190506104a25f830184610480565b92915050565b7f4e487b71000000000000000000000000000000000000000000000000000000005f52603260045260245ffd5b7f4e487b71000000000000000000000000000000000000000000000000000000005f52601260045260245ffd5b5f61050c8261036f565b91506105178361036f565b925082610527576105266104d5565b5b828206905092915050565b5f819050919050565b61054c610547826102a7565b610532565b82525050565b5f61055d828561053b565b60208201915061056d828461053b565b6020820191508190509392505050565b7f4e487b71000000000000000000000000000000000000000000000000000000005f52601160045260245ffd5b5f6105b48261036f565b91506105bf8361036f565b9250826105cf576105ce6104d5565b5b828204905092915050565b5f6105e48261036f565b91506105ef8361036f565b92508282039050818111156106075761060661057d565b5b9291505056fea26469706673582212204aa154c3f69f41dffbce949ac3eef83fbab414ebaabe3a9af51dab8c522ce70764736f6c63430008190033",
			"opcodes": "PUSH1 0x80 PUSH1 0x40 MSTORE CALLVALUE DUP1 ISZERO PUSH2 0xF JUMPI PUSH0 DUP1 REVERT JUMPDEST POP PUSH0 PUSH1 0x40 MLOAD DUP1 PUSH1 0x80 ADD PUSH1 0x40 MSTORE DUP1 PUSH1 0x40 MLOAD DUP1 PUSH1 0x40 ADD PUSH1 0x40 MSTORE DUP1 PUSH1 0x10 DUP2 MSTORE PUSH1 0x20 ADD PUSH32 0x4E69636F6C6175202D3E2048616E616500000000000000000000000000000000 DUP2 MSTORE POP DUP2 MSTORE PUSH1 0x20 ADD PUSH1 0x40 MLOAD DUP1 PUSH1 0x40 ADD PUSH1 0x40 MSTORE DUP1 PUSH1 0x12 DUP2 MSTORE PUSH1 0x20 ADD PUSH32 0x48616E6165202D3E204265746F6E656972610000000000000000000000000000 DUP2 MSTORE POP DUP2 MSTORE PUSH1 0x20 ADD PUSH1 0x40 MLOAD DUP1 PUSH1 0x40 ADD PUSH1 0x40 MSTORE DUP1 PUSH1 0x16 DUP2 MSTORE PUSH1 0x20 ADD PUSH32 0x4661726F6661202D3E204F75726F204A61636B736F6E00000000000000000000 DUP2 MSTORE POP DUP2 MSTORE PUSH1 0x20 ADD PUSH1 0x40 MLOAD DUP1 PUSH1 0x40 ADD PUSH1 0x40 MSTORE DUP1 PUSH1 0xC DUP2 MSTORE PUSH1 0x20 ADD PUSH32 0x4D6172696F202D3E2041747A0000000000000000000000000000000000000000 DUP2 MSTORE POP DUP2 MSTORE POP SWAP1 POP PUSH0 JUMPDEST PUSH1 0x4 DUP2 LT ISZERO PUSH2 0x182 JUMPI PUSH0 DUP3 DUP3 PUSH1 0x4 DUP2 LT PUSH2 0x127 JUMPI PUSH2 0x126 PUSH2 0x28C JUMP JUMPDEST JUMPDEST PUSH1 0x20 MUL ADD MLOAD PUSH1 0x40 MLOAD PUSH1 0x20 ADD PUSH2 0x13C SWAP2 SWAP1 PUSH2 0x30B JUMP JUMPDEST PUSH1 0x40 MLOAD PUSH1 0x20 DUP2 DUP4 SUB SUB DUP2 MSTORE SWAP1 PUSH1 0x40 MSTORE DUP1 MLOAD SWAP1 PUSH1 0x20 ADD KECCAK256 SWAP1 DUP1 PUSH1 0x1 DUP2 SLOAD ADD DUP1 DUP3 SSTORE DUP1 SWAP2 POP POP PUSH1 0x1 SWAP1 SUB SWAP1 PUSH0 MSTORE PUSH1 0x20 PUSH0 KECCAK256 ADD PUSH0 SWAP1 SWAP2 SWAP1 SWAP2 SWAP1 SWAP2 POP SSTORE DUP1 DUP1 PUSH1 0x1 ADD SWAP2 POP POP PUSH2 0x10A JUMP JUMPDEST POP PUSH0 PUSH1 0x4 SWAP1 POP PUSH0 JUMPDEST PUSH0 DUP3 GT ISZERO PUSH2 0x284 JUMPI PUSH0 JUMPDEST PUSH1 0x1 DUP4 PUSH2 0x1A1 SWAP2 SWAP1 PUSH2 0x357 JUMP JUMPDEST DUP2 LT ISZERO PUSH2 0x261 JUMPI PUSH0 DUP1 DUP3 DUP5 PUSH2 0x1B6 SWAP2 SWAP1 PUSH2 0x38A JUMP JUMPDEST DUP2 SLOAD DUP2 LT PUSH2 0x1C7 JUMPI PUSH2 0x1C6 PUSH2 0x28C JUMP JUMPDEST JUMPDEST SWAP1 PUSH0 MSTORE PUSH1 0x20 PUSH0 KECCAK256 ADD SLOAD PUSH0 PUSH1 0x1 DUP5 DUP7 PUSH2 0x1DF SWAP2 SWAP1 PUSH2 0x38A JUMP JUMPDEST PUSH2 0x1E9 SWAP2 SWAP1 PUSH2 0x38A JUMP JUMPDEST DUP2 SLOAD DUP2 LT PUSH2 0x1FA JUMPI PUSH2 0x1F9 PUSH2 0x28C JUMP JUMPDEST JUMPDEST SWAP1 PUSH0 MSTORE PUSH1 0x20 PUSH0 KECCAK256 ADD SLOAD PUSH1 0x40 MLOAD PUSH1 0x20 ADD PUSH2 0x214 SWAP3 SWAP2 SWAP1 PUSH2 0x3E6 JUMP JUMPDEST PUSH1 0x40 MLOAD PUSH1 0x20 DUP2 DUP4 SUB SUB DUP2 MSTORE SWAP1 PUSH1 0x40 MSTORE DUP1 MLOAD SWAP1 PUSH1 0x20 ADD KECCAK256 SWAP1 DUP1 PUSH1 0x1 DUP2 SLOAD ADD DUP1 DUP3 SSTORE DUP1 SWAP2 POP POP PUSH1 0x1 SWAP1 SUB SWAP1 PUSH0 MSTORE PUSH1 0x20 PUSH0 KECCAK256 ADD PUSH0 SWAP1 SWAP2 SWAP1 SWAP2 SWAP1 SWAP2 POP SSTORE PUSH1 0x2 DUP2 PUSH2 0x25A SWAP2 SWAP1 PUSH2 0x38A JUMP JUMPDEST SWAP1 POP PUSH2 0x194 JUMP JUMPDEST POP DUP2 DUP2 PUSH2 0x26E SWAP2 SWAP1 PUSH2 0x38A JUMP JUMPDEST SWAP1 POP PUSH1 0x2 DUP3 PUSH2 0x27D SWAP2 SWAP1 PUSH2 0x43E JUMP JUMPDEST SWAP2 POP PUSH2 0x18A JUMP JUMPDEST POP POP POP PUSH2 0x46E JUMP JUMPDEST PUSH32 0x4E487B7100000000000000000000000000000000000000000000000000000000 PUSH0 MSTORE PUSH1 0x32 PUSH1 0x4 MSTORE PUSH1 0x24 PUSH0 REVERT JUMPDEST PUSH0 DUP2 MLOAD SWAP1 POP SWAP2 SWAP1 POP JUMP JUMPDEST PUSH0 DUP2 SWAP1 POP SWAP3 SWAP2 POP POP JUMP JUMPDEST DUP3 DUP2 DUP4 MCOPY PUSH0 DUP4 DUP4 ADD MSTORE POP POP POP JUMP JUMPDEST PUSH0 PUSH2 0x2E5 DUP3 PUSH2 0x2B9 JUMP JUMPDEST PUSH2 0x2EF DUP2 DUP6 PUSH2 0x2C3 JUMP JUMPDEST SWAP4 POP PUSH2 0x2FF DUP2 DUP6 PUSH1 0x20 DUP7 ADD PUSH2 0x2CD JUMP JUMPDEST DUP1 DUP5 ADD SWAP2 POP POP SWAP3 SWAP2 POP POP JUMP JUMPDEST PUSH0 PUSH2 0x316 DUP3 DUP5 PUSH2 0x2DB JUMP JUMPDEST SWAP2 POP DUP2 SWAP1 POP SWAP3 SWAP2 POP POP JUMP JUMPDEST PUSH0 DUP2 SWAP1 POP SWAP2 SWAP1 POP JUMP JUMPDEST PUSH32 0x4E487B7100000000000000000000000000000000000000000000000000000000 PUSH0 MSTORE PUSH1 0x11 PUSH1 0x4 MSTORE PUSH1 0x24 PUSH0 REVERT JUMPDEST PUSH0 PUSH2 0x361 DUP3 PUSH2 0x321 JUMP JUMPDEST SWAP2 POP PUSH2 0x36C DUP4 PUSH2 0x321 JUMP JUMPDEST SWAP3 POP DUP3 DUP3 SUB SWAP1 POP DUP2 DUP2 GT ISZERO PUSH2 0x384 JUMPI PUSH2 0x383 PUSH2 0x32A JUMP JUMPDEST JUMPDEST SWAP3 SWAP2 POP POP JUMP JUMPDEST PUSH0 PUSH2 0x394 DUP3 PUSH2 0x321 JUMP JUMPDEST SWAP2 POP PUSH2 0x39F DUP4 PUSH2 0x321 JUMP JUMPDEST SWAP3 POP DUP3 DUP3 ADD SWAP1 POP DUP1 DUP3 GT ISZERO PUSH2 0x3B7 JUMPI PUSH2 0x3B6 PUSH2 0x32A JUMP JUMPDEST JUMPDEST SWAP3 SWAP2 POP POP JUMP JUMPDEST PUSH0 DUP2 SWAP1 POP SWAP2 SWAP1 POP JUMP JUMPDEST PUSH0 DUP2 SWAP1 POP SWAP2 SWAP1 POP JUMP JUMPDEST PUSH2 0x3E0 PUSH2 0x3DB DUP3 PUSH2 0x3BD JUMP JUMPDEST PUSH2 0x3C6 JUMP JUMPDEST DUP3 MSTORE POP POP JUMP JUMPDEST PUSH0 PUSH2 0x3F1 DUP3 DUP6 PUSH2 0x3CF JUMP JUMPDEST PUSH1 0x20 DUP3 ADD SWAP2 POP PUSH2 0x401 DUP3 DUP5 PUSH2 0x3CF JUMP JUMPDEST PUSH1 0x20 DUP3 ADD SWAP2 POP DUP2 SWAP1 POP SWAP4 SWAP3 POP POP POP JUMP JUMPDEST PUSH32 0x4E487B7100000000000000000000000000000000000000000000000000000000 PUSH0 MSTORE PUSH1 0x12 PUSH1 0x4 MSTORE PUSH1 0x24 PUSH0 REVERT JUMPDEST PUSH0 PUSH2 0x448 DUP3 PUSH2 0x321 JUMP JUMPDEST SWAP2 POP PUSH2 0x453 DUP4 PUSH2 0x321 JUMP JUMPDEST SWAP3 POP DUP3 PUSH2 0x463 JUMPI PUSH2 0x462 PUSH2 0x411 JUMP JUMPDEST JUMPDEST DUP3 DUP3 DIV SWAP1 POP SWAP3 SWAP2 POP POP JUMP JUMPDEST PUSH2 0x643 DUP1 PUSH2 0x47B PUSH0 CODECOPY PUSH0 RETURN INVALID PUSH1 0x80 PUSH1 0x40 MSTORE CALLVALUE DUP1 ISZERO PUSH2 0xF JUMPI PUSH0 DUP1 REVERT JUMPDEST POP PUSH1 0x4 CALLDATASIZE LT PUSH2 0x3F JUMPI PUSH0 CALLDATALOAD PUSH1 0xE0 SHR DUP1 PUSH4 0x21FB335C EQ PUSH2 0x43 JUMPI DUP1 PUSH4 0x501895AE EQ PUSH2 0x73 JUMPI DUP1 PUSH4 0x5CA1E165 EQ PUSH2 0xA3 JUMPI JUMPDEST PUSH0 DUP1 REVERT JUMPDEST PUSH2 0x5D PUSH1 0x4 DUP1 CALLDATASIZE SUB DUP2 ADD SWAP1 PUSH2 0x58 SWAP2 SWAP1 PUSH2 0x3A2 JUMP JUMPDEST PUSH2 0xC1 JUMP JUMPDEST PUSH1 0x40 MLOAD PUSH2 0x6A SWAP2 SWAP1 PUSH2 0x43C JUMP JUMPDEST PUSH1 0x40 MLOAD DUP1 SWAP2 SUB SWAP1 RETURN JUMPDEST PUSH2 0x8D PUSH1 0x4 DUP1 CALLDATASIZE SUB DUP2 ADD SWAP1 PUSH2 0x88 SWAP2 SWAP1 PUSH2 0x455 JUMP JUMPDEST PUSH2 0x18A JUMP JUMPDEST PUSH1 0x40 MLOAD PUSH2 0x9A SWAP2 SWAP1 PUSH2 0x48F JUMP JUMPDEST PUSH1 0x40 MLOAD DUP1 SWAP2 SUB SWAP1 RETURN JUMPDEST PUSH2 0xAB PUSH2 0x1A9 JUMP JUMPDEST PUSH1 0x40 MLOAD PUSH2 0xB8 SWAP2 SWAP1 PUSH2 0x48F JUMP JUMPDEST PUSH1 0x40 MLOAD DUP1 SWAP2 SUB SWAP1 RETURN JUMPDEST PUSH0 DUP1 DUP4 SWAP1 POP PUSH0 JUMPDEST DUP7 MLOAD DUP2 LT ISZERO PUSH2 0x17B JUMPI PUSH0 DUP8 DUP3 DUP2 MLOAD DUP2 LT PUSH2 0xE5 JUMPI PUSH2 0xE4 PUSH2 0x4A8 JUMP JUMPDEST JUMPDEST PUSH1 0x20 MUL PUSH1 0x20 ADD ADD MLOAD SWAP1 POP PUSH0 PUSH1 0x2 DUP7 PUSH2 0xFD SWAP2 SWAP1 PUSH2 0x502 JUMP JUMPDEST SUB PUSH2 0x132 JUMPI DUP3 DUP2 PUSH1 0x40 MLOAD PUSH1 0x20 ADD PUSH2 0x115 SWAP3 SWAP2 SWAP1 PUSH2 0x552 JUMP JUMPDEST PUSH1 0x40 MLOAD PUSH1 0x20 DUP2 DUP4 SUB SUB DUP2 MSTORE SWAP1 PUSH1 0x40 MSTORE DUP1 MLOAD SWAP1 PUSH1 0x20 ADD KECCAK256 SWAP3 POP PUSH2 0x15E JUMP JUMPDEST DUP1 DUP4 PUSH1 0x40 MLOAD PUSH1 0x20 ADD PUSH2 0x145 SWAP3 SWAP2 SWAP1 PUSH2 0x552 JUMP JUMPDEST PUSH1 0x40 MLOAD PUSH1 0x20 DUP2 DUP4 SUB SUB DUP2 MSTORE SWAP1 PUSH1 0x40 MSTORE DUP1 MLOAD SWAP1 PUSH1 0x20 ADD KECCAK256 SWAP3 POP JUMPDEST PUSH1 0x2 DUP6 PUSH2 0x16B SWAP2 SWAP1 PUSH2 0x5AA JUMP JUMPDEST SWAP5 POP POP DUP1 DUP1 PUSH1 0x1 ADD SWAP2 POP POP PUSH2 0xC8 JUMP JUMPDEST POP DUP5 DUP2 EQ SWAP2 POP POP SWAP5 SWAP4 POP POP POP POP JUMP JUMPDEST PUSH0 DUP2 DUP2 SLOAD DUP2 LT PUSH2 0x198 JUMPI PUSH0 DUP1 REVERT JUMPDEST SWAP1 PUSH0 MSTORE PUSH1 0x20 PUSH0 KECCAK256 ADD PUSH0 SWAP2 POP SWAP1 POP SLOAD DUP2 JUMP JUMPDEST PUSH0 DUP1 PUSH1 0x1 PUSH0 DUP1 SLOAD SWAP1 POP PUSH2 0x1BC SWAP2 SWAP1 PUSH2 0x5DA JUMP JUMPDEST DUP2 SLOAD DUP2 LT PUSH2 0x1CD JUMPI PUSH2 0x1CC PUSH2 0x4A8 JUMP JUMPDEST JUMPDEST SWAP1 PUSH0 MSTORE PUSH1 0x20 PUSH0 KECCAK256 ADD SLOAD SWAP1 POP SWAP1 JUMP JUMPDEST PUSH0 PUSH1 0x40 MLOAD SWAP1 POP SWAP1 JUMP JUMPDEST PUSH0 DUP1 REVERT JUMPDEST PUSH0 DUP1 REVERT JUMPDEST PUSH0 DUP1 REVERT JUMPDEST PUSH0 PUSH1 0x1F NOT PUSH1 0x1F DUP4 ADD AND SWAP1 POP SWAP2 SWAP1 POP JUMP JUMPDEST PUSH32 0x4E487B7100000000000000000000000000000000000000000000000000000000 PUSH0 MSTORE PUSH1 0x41 PUSH1 0x4 MSTORE PUSH1 0x24 PUSH0 REVERT JUMPDEST PUSH2 0x236 DUP3 PUSH2 0x1F0 JUMP JUMPDEST DUP2 ADD DUP2 DUP2 LT PUSH8 0xFFFFFFFFFFFFFFFF DUP3 GT OR ISZERO PUSH2 0x255 JUMPI PUSH2 0x254 PUSH2 0x200 JUMP JUMPDEST JUMPDEST DUP1 PUSH1 0x40 MSTORE POP POP POP JUMP JUMPDEST PUSH0 PUSH2 0x267 PUSH2 0x1DB JUMP JUMPDEST SWAP1 POP PUSH2 0x273 DUP3 DUP3 PUSH2 0x22D JUMP JUMPDEST SWAP2 SWAP1 POP JUMP JUMPDEST PUSH0 PUSH8 0xFFFFFFFFFFFFFFFF DUP3 GT ISZERO PUSH2 0x292 JUMPI PUSH2 0x291 PUSH2 0x200 JUMP JUMPDEST JUMPDEST PUSH1 0x20 DUP3 MUL SWAP1 POP PUSH1 0x20 DUP2 ADD SWAP1 POP SWAP2 SWAP1 POP JUMP JUMPDEST PUSH0 DUP1 REVERT JUMPDEST PUSH0 DUP2 SWAP1 POP SWAP2 SWAP1 POP JUMP JUMPDEST PUSH2 0x2B9 DUP2 PUSH2 0x2A7 JUMP JUMPDEST DUP2 EQ PUSH2 0x2C3 JUMPI PUSH0 DUP1 REVERT JUMPDEST POP JUMP JUMPDEST PUSH0 DUP2 CALLDATALOAD SWAP1 POP PUSH2 0x2D4 DUP2 PUSH2 0x2B0 JUMP JUMPDEST SWAP3 SWAP2 POP POP JUMP JUMPDEST PUSH0 PUSH2 0x2EC PUSH2 0x2E7 DUP5 PUSH2 0x278 JUMP JUMPDEST PUSH2 0x25E JUMP JUMPDEST SWAP1 POP DUP1 DUP4 DUP3 MSTORE PUSH1 0x20 DUP3 ADD SWAP1 POP PUSH1 0x20 DUP5 MUL DUP4 ADD DUP6 DUP2 GT ISZERO PUSH2 0x30F JUMPI PUSH2 0x30E PUSH2 0x2A3 JUMP JUMPDEST JUMPDEST DUP4 JUMPDEST DUP2 DUP2 LT ISZERO PUSH2 0x338 JUMPI DUP1 PUSH2 0x324 DUP9 DUP3 PUSH2 0x2C6 JUMP JUMPDEST DUP5 MSTORE PUSH1 0x20 DUP5 ADD SWAP4 POP POP PUSH1 0x20 DUP2 ADD SWAP1 POP PUSH2 0x311 JUMP JUMPDEST POP POP POP SWAP4 SWAP3 POP POP POP JUMP JUMPDEST PUSH0 DUP3 PUSH1 0x1F DUP4 ADD SLT PUSH2 0x356 JUMPI PUSH2 0x355 PUSH2 0x1EC JUMP JUMPDEST JUMPDEST DUP2 CALLDATALOAD PUSH2 0x366 DUP5 DUP3 PUSH1 0x20 DUP7 ADD PUSH2 0x2DA JUMP JUMPDEST SWAP2 POP POP SWAP3 SWAP2 POP POP JUMP JUMPDEST PUSH0 DUP2 SWAP1 POP SWAP2 SWAP1 POP JUMP JUMPDEST PUSH2 0x381 DUP2 PUSH2 0x36F JUMP JUMPDEST DUP2 EQ PUSH2 0x38B JUMPI PUSH0 DUP1 REVERT JUMPDEST POP JUMP JUMPDEST PUSH0 DUP2 CALLDATALOAD SWAP1 POP PUSH2 0x39C DUP2 PUSH2 0x378 JUMP JUMPDEST SWAP3 SWAP2 POP POP JUMP JUMPDEST PUSH0 DUP1 PUSH0 DUP1 PUSH1 0x80 DUP6 DUP8 SUB SLT ISZERO PUSH2 0x3BA JUMPI PUSH2 0x3B9 PUSH2 0x1E4 JUMP JUMPDEST JUMPDEST PUSH0 DUP6 ADD CALLDATALOAD PUSH8 0xFFFFFFFFFFFFFFFF DUP2 GT ISZERO PUSH2 0x3D7 JUMPI PUSH2 0x3D6 PUSH2 0x1E8 JUMP JUMPDEST JUMPDEST PUSH2 0x3E3 DUP8 DUP3 DUP9 ADD PUSH2 0x342 JUMP JUMPDEST SWAP5 POP POP PUSH1 0x20 PUSH2 0x3F4 DUP8 DUP3 DUP9 ADD PUSH2 0x2C6 JUMP JUMPDEST SWAP4 POP POP PUSH1 0x40 PUSH2 0x405 DUP8 DUP3 DUP9 ADD PUSH2 0x2C6 JUMP JUMPDEST SWAP3 POP POP PUSH1 0x60 PUSH2 0x416 DUP8 DUP3 DUP9 ADD PUSH2 0x38E JUMP JUMPDEST SWAP2 POP POP SWAP3 SWAP6 SWAP2 SWAP5 POP SWAP3 POP JUMP JUMPDEST PUSH0 DUP2 ISZERO ISZERO SWAP1 POP SWAP2 SWAP1 POP JUMP JUMPDEST PUSH2 0x436 DUP2 PUSH2 0x422 JUMP JUMPDEST DUP3 MSTORE POP POP JUMP JUMPDEST PUSH0 PUSH1 0x20 DUP3 ADD SWAP1 POP PUSH2 0x44F PUSH0 DUP4 ADD DUP5 PUSH2 0x42D JUMP JUMPDEST SWAP3 SWAP2 POP POP JUMP JUMPDEST PUSH0 PUSH1 0x20 DUP3 DUP5 SUB SLT ISZERO PUSH2 0x46A JUMPI PUSH2 0x469 PUSH2 0x1E4 JUMP JUMPDEST JUMPDEST PUSH0 PUSH2 0x477 DUP5 DUP3 DUP6 ADD PUSH2 0x38E JUMP JUMPDEST SWAP2 POP POP SWAP3 SWAP2 POP POP JUMP JUMPDEST PUSH2 0x489 DUP2 PUSH2 0x2A7 JUMP JUMPDEST DUP3 MSTORE POP POP JUMP JUMPDEST PUSH0 PUSH1 0x20 DUP3 ADD SWAP1 POP PUSH2 0x4A2 PUSH0 DUP4 ADD DUP5 PUSH2 0x480 JUMP JUMPDEST SWAP3 SWAP2 POP POP JUMP JUMPDEST PUSH32 0x4E487B7100000000000000000000000000000000000000000000000000000000 PUSH0 MSTORE PUSH1 0x32 PUSH1 0x4 MSTORE PUSH1 0x24 PUSH0 REVERT JUMPDEST PUSH32 0x4E487B7100000000000000000000000000000000000000000000000000000000 PUSH0 MSTORE PUSH1 0x12 PUSH1 0x4 MSTORE PUSH1 0x24 PUSH0 REVERT JUMPDEST PUSH0 PUSH2 0x50C DUP3 PUSH2 0x36F JUMP JUMPDEST SWAP2 POP PUSH2 0x517 DUP4 PUSH2 0x36F JUMP JUMPDEST SWAP3 POP DUP3 PUSH2 0x527 JUMPI PUSH2 0x526 PUSH2 0x4D5 JUMP JUMPDEST JUMPDEST DUP3 DUP3 MOD SWAP1 POP SWAP3 SWAP2 POP POP JUMP JUMPDEST PUSH0 DUP2 SWAP1 POP SWAP2 SWAP1 POP JUMP JUMPDEST PUSH2 0x54C PUSH2 0x547 DUP3 PUSH2 0x2A7 JUMP JUMPDEST PUSH2 0x532 JUMP JUMPDEST DUP3 MSTORE POP POP JUMP JUMPDEST PUSH0 PUSH2 0x55D DUP3 DUP6 PUSH2 0x53B JUMP JUMPDEST PUSH1 0x20 DUP3 ADD SWAP2 POP PUSH2 0x56D DUP3 DUP5 PUSH2 0x53B JUMP JUMPDEST PUSH1 0x20 DUP3 ADD SWAP2 POP DUP2 SWAP1 POP SWAP4 SWAP3 POP POP POP JUMP JUMPDEST PUSH32 0x4E487B7100000000000000000000000000000000000000000000000000000000 PUSH0 MSTORE PUSH1 0x11 PUSH1 0x4 MSTORE PUSH1 0x24 PUSH0 REVERT JUMPDEST PUSH0 PUSH2 0x5B4 DUP3 PUSH2 0x36F JUMP JUMPDEST SWAP2 POP PUSH2 0x5BF DUP4 PUSH2 0x36F JUMP JUMPDEST SWAP3 POP DUP3 PUSH2 0x5CF JUMPI PUSH2 0x5CE PUSH2 0x4D5 JUMP JUMPDEST JUMPDEST DUP3 DUP3 DIV SWAP1 POP SWAP3 SWAP2 POP POP JUMP JUMPDEST PUSH0 PUSH2 0x5E4 DUP3 PUSH2 0x36F JUMP JUMPDEST SWAP2 POP PUSH2 0x5EF DUP4 PUSH2 0x36F JUMP JUMPDEST SWAP3 POP DUP3 DUP3 SUB SWAP1 POP DUP2 DUP2 GT ISZERO PUSH2 0x607 JUMPI PUSH2 0x606 PUSH2 0x57D JUMP JUMPDEST JUMPDEST SWAP3 SWAP2 POP POP JUMP INVALID LOG2 PUSH5 0x6970667358 0x22 SLT KECCAK256 BLOBBASEFEE LOG1 SLOAD 0xC3 0xF6 SWAP16 COINBASE 0xDF 0xFB 0xCE SWAP5 SWAP11 0xC3 0xEE 0xF8 EXTCODEHASH 0xBA 0xB4 EQ 0xEB 0xAA 0xBE GASPRICE SWAP11 CREATE2 SAR 0xAB DUP13 MSTORE 0x2C 0xE7 SMOD PUSH5 0x736F6C6343 STOP ADDMOD NOT STOP CALLER "
		},
		"gasEstimates": {
			"creation": {
				"codeDepositCost": "320600",
				"executionCost": "infinite",
				"totalCost": "infinite"
			},
			"external": {
				"getRoot()": "infinite",
				"hashes(uint256)": "4870",
				"verify(bytes32[],bytes32,bytes32,uint256)": "infinite"
			}
		},
		"methodIdentifiers": {
			"getRoot()": "5ca1e165",
			"hashes(uint256)": "501895ae",
			"verify(bytes32[],bytes32,bytes32,uint256)": "21fb335c"
		}
	},
	"abi": [
		{
			"inputs": [],
			"stateMutability": "nonpayable",
			"type": "constructor"
		},
		{
			"inputs": [],
			"name": "getRoot",
			"outputs": [
				{
					"internalType": "bytes32",
					"name": "",
					"type": "bytes32"
				}
			],
			"stateMutability": "view",
			"type": "function"
		},
		{
			"inputs": [
				{
					"internalType": "uint256",
					"name": "",
					"type": "uint256"
				}
			],
			"name": "hashes",
			"outputs": [
				{
					"internalType": "bytes32",
					"name": "",
					"type": "bytes32"
				}
			],
			"stateMutability": "view",
			"type": "function"
		},
		{
			"inputs": [
				{
					"internalType": "bytes32[]",
					"name": "proof",
					"type": "bytes32[]"
				},
				{
					"internalType": "bytes32",
					"name": "root",
					"type": "bytes32"
				},
				{
					"internalType": "bytes32",
					"name": "leaf",
					"type": "bytes32"
				},
				{
					"internalType": "uint256",
					"name": "index",
					"type": "uint256"
				}
			],
			"name": "verify",
			"outputs": [
				{
					"internalType": "bool",
					"name": "",
					"type": "bool"
				}
			],
			"stateMutability": "pure",
			"type": "function"
		}
	]
}