{
	"Legi-o/Legi-o.solc/contracts/If e Else.sol": {
		"IfElse": {
			"abi": [
				{
					"inputs": [
						{
							"internalType": "uint256",
							"name": "x",
							"type": "uint256"
						}
					],
					"name": "foo",
					"outputs": [
						{
							"internalType": "uint256",
							"name": "",
							"type": "uint256"
						}
					],
					"stateMutability": "pure",
					"type": "function"
				},
				{
					"inputs": [
						{
							"internalType": "uint256",
							"name": "_x",
							"type": "uint256"
						}
					],
					"name": "ternario",
					"outputs": [
						{
							"internalType": "uint256",
							"name": "",
							"type": "uint256"
						}
					],
					"stateMutability": "pure",
					"type": "function"
				}
			],
			"devdoc": {
				"kind": "dev",
				"methods": {},
				"version": 1
			},
			"evm": {
				"assembly": "    /* \"Legi-o/Legi-o.solc/contracts/If e Else.sol\":66:890  contract IfElse {... */\n  mstore(0x40, 0x80)\n  callvalue\n  dup1\n  iszero\n  tag_1\n  jumpi\n  0x00\n  dup1\n  revert\ntag_1:\n  pop\n  dataSize(sub_0)\n  dup1\n  dataOffset(sub_0)\n  0x00\n  codecopy\n  0x00\n  return\nstop\n\nsub_0: assembly {\n        /* \"Legi-o/Legi-o.solc/contracts/If e Else.sol\":66:890  contract IfElse {... */\n      mstore(0x40, 0x80)\n      callvalue\n      dup1\n      iszero\n      tag_1\n      jumpi\n      0x00\n      dup1\n      revert\n    tag_1:\n      pop\n      jumpi(tag_2, lt(calldatasize, 0x04))\n      shr(0xe0, calldataload(0x00))\n      dup1\n      0x2fbebd38\n      eq\n      tag_3\n      jumpi\n      dup1\n      0x432a6413\n      eq\n      tag_4\n      jumpi\n    tag_2:\n      0x00\n      dup1\n      revert\n        /* \"Legi-o/Legi-o.solc/contracts/If e Else.sol\":88:287  function foo(uint x) public pure returns (uint) {... */\n    tag_3:\n      tag_5\n      0x04\n      dup1\n      calldatasize\n      sub\n      dup2\n      add\n      swap1\n      tag_6\n      swap2\n      swap1\n      tag_7\n      jump\t// in\n    tag_6:\n      tag_8\n      jump\t// in\n    tag_5:\n      mload(0x40)\n      tag_9\n      swap2\n      swap1\n      tag_10\n      jump\t// in\n    tag_9:\n      mload(0x40)\n      dup1\n      swap2\n      sub\n      swap1\n      return\n        /* \"Legi-o/Legi-o.solc/contracts/If e Else.sol\":409:888  function ternario(uint _x) public pure returns (uint) {... */\n    tag_4:\n      tag_11\n      0x04\n      dup1\n      calldatasize\n      sub\n      dup2\n      add\n      swap1\n      tag_12\n      swap2\n      swap1\n      tag_7\n      jump\t// in\n    tag_12:\n      tag_13\n      jump\t// in\n    tag_11:\n      mload(0x40)\n      tag_14\n      swap2\n      swap1\n      tag_10\n      jump\t// in\n    tag_14:\n      mload(0x40)\n      dup1\n      swap2\n      sub\n      swap1\n      return\n        /* \"Legi-o/Legi-o.solc/contracts/If e Else.sol\":88:287  function foo(uint x) public pure returns (uint) {... */\n    tag_8:\n        /* \"Legi-o/Legi-o.solc/contracts/If e Else.sol\":130:134  uint */\n      0x00\n        /* \"Legi-o/Legi-o.solc/contracts/If e Else.sol\":154:156  10 */\n      0x0a\n        /* \"Legi-o/Legi-o.solc/contracts/If e Else.sol\":150:151  x */\n      dup3\n        /* \"Legi-o/Legi-o.solc/contracts/If e Else.sol\":150:156  x < 10 */\n      lt\n        /* \"Legi-o/Legi-o.solc/contracts/If e Else.sol\":146:281  if (x < 10) {... */\n      iszero\n      tag_16\n      jumpi\n        /* \"Legi-o/Legi-o.solc/contracts/If e Else.sol\":179:180  0 */\n      0x00\n        /* \"Legi-o/Legi-o.solc/contracts/If e Else.sol\":172:180  return 0 */\n      swap1\n      pop\n      jump(tag_15)\n        /* \"Legi-o/Legi-o.solc/contracts/If e Else.sol\":146:281  if (x < 10) {... */\n    tag_16:\n        /* \"Legi-o/Legi-o.solc/contracts/If e Else.sol\":205:207  20 */\n      0x14\n        /* \"Legi-o/Legi-o.solc/contracts/If e Else.sol\":201:202  x */\n      dup3\n        /* \"Legi-o/Legi-o.solc/contracts/If e Else.sol\":201:207  x < 20 */\n      lt\n        /* \"Legi-o/Legi-o.solc/contracts/If e Else.sol\":197:281  if (x < 20) {... */\n      iszero\n      tag_18\n      jumpi\n        /* \"Legi-o/Legi-o.solc/contracts/If e Else.sol\":230:231  1 */\n      0x01\n        /* \"Legi-o/Legi-o.solc/contracts/If e Else.sol\":223:231  return 1 */\n      swap1\n      pop\n      jump(tag_15)\n        /* \"Legi-o/Legi-o.solc/contracts/If e Else.sol\":197:281  if (x < 20) {... */\n    tag_18:\n        /* \"Legi-o/Legi-o.solc/contracts/If e Else.sol\":269:270  2 */\n      0x02\n        /* \"Legi-o/Legi-o.solc/contracts/If e Else.sol\":262:270  return 2 */\n      swap1\n      pop\n        /* \"Legi-o/Legi-o.solc/contracts/If e Else.sol\":88:287  function foo(uint x) public pure returns (uint) {... */\n    tag_15:\n      swap2\n      swap1\n      pop\n      jump\t// out\n        /* \"Legi-o/Legi-o.solc/contracts/If e Else.sol\":409:888  function ternario(uint _x) public pure returns (uint) {... */\n    tag_13:\n        /* \"Legi-o/Legi-o.solc/contracts/If e Else.sol\":457:461  uint */\n      0x00\n        /* \"Legi-o/Legi-o.solc/contracts/If e Else.sol\":871:873  10 */\n      0x0a\n        /* \"Legi-o/Legi-o.solc/contracts/If e Else.sol\":866:868  _x */\n      dup3\n        /* \"Legi-o/Legi-o.solc/contracts/If e Else.sol\":866:873  _x < 10 */\n      lt\n        /* \"Legi-o/Legi-o.solc/contracts/If e Else.sol\":866:881  _x < 10 ? 1 : 2 */\n      tag_21\n      jumpi\n        /* \"Legi-o/Legi-o.solc/contracts/If e Else.sol\":880:881  2 */\n      0x02\n        /* \"Legi-o/Legi-o.solc/contracts/If e Else.sol\":866:881  _x < 10 ? 1 : 2 */\n      jump(tag_22)\n    tag_21:\n        /* \"Legi-o/Legi-o.solc/contracts/If e Else.sol\":876:877  1 */\n      0x01\n        /* \"Legi-o/Legi-o.solc/contracts/If e Else.sol\":866:881  _x < 10 ? 1 : 2 */\n    tag_22:\n        /* \"Legi-o/Legi-o.solc/contracts/If e Else.sol\":859:881  return _x < 10 ? 1 : 2 */\n      0xff\n      and\n      swap1\n      pop\n        /* \"Legi-o/Legi-o.solc/contracts/If e Else.sol\":409:888  function ternario(uint _x) public pure returns (uint) {... */\n      swap2\n      swap1\n      pop\n      jump\t// out\n        /* \"#utility.yul\":88:205   */\n    tag_24:\n        /* \"#utility.yul\":197:198   */\n      0x00\n        /* \"#utility.yul\":194:195   */\n      dup1\n        /* \"#utility.yul\":187:199   */\n      revert\n        /* \"#utility.yul\":334:411   */\n    tag_26:\n        /* \"#utility.yul\":371:378   */\n      0x00\n        /* \"#utility.yul\":400:405   */\n      dup2\n        /* \"#utility.yul\":389:405   */\n      swap1\n      pop\n        /* \"#utility.yul\":334:411   */\n      swap2\n      swap1\n      pop\n      jump\t// out\n        /* \"#utility.yul\":417:539   */\n    tag_27:\n        /* \"#utility.yul\":490:514   */\n      tag_36\n        /* \"#utility.yul\":508:513   */\n      dup2\n        /* \"#utility.yul\":490:514   */\n      tag_26\n      jump\t// in\n    tag_36:\n        /* \"#utility.yul\":483:488   */\n      dup2\n        /* \"#utility.yul\":480:515   */\n      eq\n        /* \"#utility.yul\":470:533   */\n      tag_37\n      jumpi\n        /* \"#utility.yul\":529:530   */\n      0x00\n        /* \"#utility.yul\":526:527   */\n      dup1\n        /* \"#utility.yul\":519:531   */\n      revert\n        /* \"#utility.yul\":470:533   */\n    tag_37:\n        /* \"#utility.yul\":417:539   */\n      pop\n      jump\t// out\n        /* \"#utility.yul\":545:684   */\n    tag_28:\n        /* \"#utility.yul\":591:596   */\n      0x00\n        /* \"#utility.yul\":629:635   */\n      dup2\n        /* \"#utility.yul\":616:636   */\n      calldataload\n        /* \"#utility.yul\":607:636   */\n      swap1\n      pop\n        /* \"#utility.yul\":645:678   */\n      tag_39\n        /* \"#utility.yul\":672:677   */\n      dup2\n        /* \"#utility.yul\":645:678   */\n      tag_27\n      jump\t// in\n    tag_39:\n        /* \"#utility.yul\":545:684   */\n      swap3\n      swap2\n      pop\n      pop\n      jump\t// out\n        /* \"#utility.yul\":690:1019   */\n    tag_7:\n        /* \"#utility.yul\":749:755   */\n      0x00\n        /* \"#utility.yul\":798:800   */\n      0x20\n        /* \"#utility.yul\":786:795   */\n      dup3\n        /* \"#utility.yul\":777:784   */\n      dup5\n        /* \"#utility.yul\":773:796   */\n      sub\n        /* \"#utility.yul\":769:801   */\n      slt\n        /* \"#utility.yul\":766:885   */\n      iszero\n      tag_41\n      jumpi\n        /* \"#utility.yul\":804:883   */\n      tag_42\n      tag_24\n      jump\t// in\n    tag_42:\n        /* \"#utility.yul\":766:885   */\n    tag_41:\n        /* \"#utility.yul\":924:925   */\n      0x00\n        /* \"#utility.yul\":949:1002   */\n      tag_43\n        /* \"#utility.yul\":994:1001   */\n      dup5\n        /* \"#utility.yul\":985:991   */\n      dup3\n        /* \"#utility.yul\":974:983   */\n      dup6\n        /* \"#utility.yul\":970:992   */\n      add\n        /* \"#utility.yul\":949:1002   */\n      tag_28\n      jump\t// in\n    tag_43:\n        /* \"#utility.yul\":939:1002   */\n      swap2\n      pop\n        /* \"#utility.yul\":895:1012   */\n      pop\n        /* \"#utility.yul\":690:1019   */\n      swap3\n      swap2\n      pop\n      pop\n      jump\t// out\n        /* \"#utility.yul\":1025:1143   */\n    tag_29:\n        /* \"#utility.yul\":1112:1136   */\n      tag_45\n        /* \"#utility.yul\":1130:1135   */\n      dup2\n        /* \"#utility.yul\":1112:1136   */\n      tag_26\n      jump\t// in\n    tag_45:\n        /* \"#utility.yul\":1107:1110   */\n      dup3\n        /* \"#utility.yul\":1100:1137   */\n      mstore\n        /* \"#utility.yul\":1025:1143   */\n      pop\n      pop\n      jump\t// out\n        /* \"#utility.yul\":1149:1371   */\n    tag_10:\n        /* \"#utility.yul\":1242:1246   */\n      0x00\n        /* \"#utility.yul\":1280:1282   */\n      0x20\n        /* \"#utility.yul\":1269:1278   */\n      dup3\n        /* \"#utility.yul\":1265:1283   */\n      add\n        /* \"#utility.yul\":1257:1283   */\n      swap1\n      pop\n        /* \"#utility.yul\":1293:1364   */\n      tag_47\n        /* \"#utility.yul\":1361:1362   */\n      0x00\n        /* \"#utility.yul\":1350:1359   */\n      dup4\n        /* \"#utility.yul\":1346:1363   */\n      add\n        /* \"#utility.yul\":1337:1343   */\n      dup5\n        /* \"#utility.yul\":1293:1364   */\n      tag_29\n      jump\t// in\n    tag_47:\n        /* \"#utility.yul\":1149:1371   */\n      swap3\n      swap2\n      pop\n      pop\n      jump\t// out\n\n    auxdata: 0xa2646970667358221220945059c2569f46ccc19dcd5c7834171ea3851c0b594aa60d16a0b15fff50de0b64736f6c63430008190033\n}\n",
				"bytecode": {
					"linkReferences": {},
					"object": "6080604052348015600e575f80fd5b506101a38061001c5f395ff3fe608060405234801561000f575f80fd5b5060043610610034575f3560e01c80632fbebd3814610038578063432a641314610068575b5f80fd5b610052600480360381019061004d919061011a565b610098565b60405161005f9190610154565b60405180910390f35b610082600480360381019061007d919061011a565b6100c6565b60405161008f9190610154565b60405180910390f35b5f600a8210156100aa575f90506100c1565b60148210156100bc57600190506100c1565b600290505b919050565b5f600a82106100d65760026100d9565b60015b60ff169050919050565b5f80fd5b5f819050919050565b6100f9816100e7565b8114610103575f80fd5b50565b5f81359050610114816100f0565b92915050565b5f6020828403121561012f5761012e6100e3565b5b5f61013c84828501610106565b91505092915050565b61014e816100e7565b82525050565b5f6020820190506101675f830184610145565b9291505056fea2646970667358221220945059c2569f46ccc19dcd5c7834171ea3851c0b594aa60d16a0b15fff50de0b64736f6c63430008190033",
					"opcodes": "PUSH1 0x80 PUSH1 0x40 MSTORE CALLVALUE DUP1 ISZERO PUSH1 0xE JUMPI PUSH0 DUP1 REVERT JUMPDEST POP PUSH2 0x1A3 DUP1 PUSH2 0x1C PUSH0 CODECOPY PUSH0 RETURN INVALID PUSH1 0x80 PUSH1 0x40 MSTORE CALLVALUE DUP1 ISZERO PUSH2 0xF JUMPI PUSH0 DUP1 REVERT JUMPDEST POP PUSH1 0x4 CALLDATASIZE LT PUSH2 0x34 JUMPI PUSH0 CALLDATALOAD PUSH1 0xE0 SHR DUP1 PUSH4 0x2FBEBD38 EQ PUSH2 0x38 JUMPI DUP1 PUSH4 0x432A6413 EQ PUSH2 0x68 JUMPI JUMPDEST PUSH0 DUP1 REVERT JUMPDEST PUSH2 0x52 PUSH1 0x4 DUP1 CALLDATASIZE SUB DUP2 ADD SWAP1 PUSH2 0x4D SWAP2 SWAP1 PUSH2 0x11A JUMP JUMPDEST PUSH2 0x98 JUMP JUMPDEST PUSH1 0x40 MLOAD PUSH2 0x5F SWAP2 SWAP1 PUSH2 0x154 JUMP JUMPDEST PUSH1 0x40 MLOAD DUP1 SWAP2 SUB SWAP1 RETURN JUMPDEST PUSH2 0x82 PUSH1 0x4 DUP1 CALLDATASIZE SUB DUP2 ADD SWAP1 PUSH2 0x7D SWAP2 SWAP1 PUSH2 0x11A JUMP JUMPDEST PUSH2 0xC6 JUMP JUMPDEST PUSH1 0x40 MLOAD PUSH2 0x8F SWAP2 SWAP1 PUSH2 0x154 JUMP JUMPDEST PUSH1 0x40 MLOAD DUP1 SWAP2 SUB SWAP1 RETURN JUMPDEST PUSH0 PUSH1 0xA DUP3 LT ISZERO PUSH2 0xAA JUMPI PUSH0 SWAP1 POP PUSH2 0xC1 JUMP JUMPDEST PUSH1 0x14 DUP3 LT ISZERO PUSH2 0xBC JUMPI PUSH1 0x1 SWAP1 POP PUSH2 0xC1 JUMP JUMPDEST PUSH1 0x2 SWAP1 POP JUMPDEST SWAP2 SWAP1 POP JUMP JUMPDEST PUSH0 PUSH1 0xA DUP3 LT PUSH2 0xD6 JUMPI PUSH1 0x2 PUSH2 0xD9 JUMP JUMPDEST PUSH1 0x1 JUMPDEST PUSH1 0xFF AND SWAP1 POP SWAP2 SWAP1 POP JUMP JUMPDEST PUSH0 DUP1 REVERT JUMPDEST PUSH0 DUP2 SWAP1 POP SWAP2 SWAP1 POP JUMP JUMPDEST PUSH2 0xF9 DUP2 PUSH2 0xE7 JUMP JUMPDEST DUP2 EQ PUSH2 0x103 JUMPI PUSH0 DUP1 REVERT JUMPDEST POP JUMP JUMPDEST PUSH0 DUP2 CALLDATALOAD SWAP1 POP PUSH2 0x114 DUP2 PUSH2 0xF0 JUMP JUMPDEST SWAP3 SWAP2 POP POP JUMP JUMPDEST PUSH0 PUSH1 0x20 DUP3 DUP5 SUB SLT ISZERO PUSH2 0x12F JUMPI PUSH2 0x12E PUSH2 0xE3 JUMP JUMPDEST JUMPDEST PUSH0 PUSH2 0x13C DUP5 DUP3 DUP6 ADD PUSH2 0x106 JUMP JUMPDEST SWAP2 POP POP SWAP3 SWAP2 POP POP JUMP JUMPDEST PUSH2 0x14E DUP2 PUSH2 0xE7 JUMP JUMPDEST DUP3 MSTORE POP POP JUMP JUMPDEST PUSH0 PUSH1 0x20 DUP3 ADD SWAP1 POP PUSH2 0x167 PUSH0 DUP4 ADD DUP5 PUSH2 0x145 JUMP JUMPDEST SWAP3 SWAP2 POP POP JUMP INVALID LOG2 PUSH5 0x6970667358 0x22 SLT KECCAK256 SWAP5 POP MSIZE 0xC2 JUMP SWAP16 CHAINID 0xCC 0xC1 SWAP14 0xCD TLOAD PUSH25 0x34171EA3851C0B594AA60D16A0B15FFF50DE0B64736F6C6343 STOP ADDMOD NOT STOP CALLER "
				},
				"gasEstimates": {
					"creation": {
						"codeDepositCost": "83800",
						"executionCost": "133",
						"totalCost": "83933"
					},
					"external": {
						"foo(uint256)": "infinite",
						"ternario(uint256)": "infinite"
					}
				},
				"methodIdentifiers": {
					"foo(uint256)": "2fbebd38",
					"ternario(uint256)": "432a6413"
				}
			},
			"storageLayout": {
				"storage": [],
				"types": null
			},
			"userdoc": {
				"kind": "user",
				"methods": {},
				"version": 1
			}
		}
	}
}