{
	"Legi-o/Legi-o.solc/contracts/economia-de-gas.sol": {
		"GasGolf": {
			"abi": [
				{
					"inputs": [
						{
							"internalType": "uint256[]",
							"name": "nums",
							"type": "uint256[]"
						}
					],
					"name": "sumIfEvenAndLessThan99",
					"outputs": [],
					"stateMutability": "nonpayable",
					"type": "function"
				},
				{
					"inputs": [],
					"name": "total",
					"outputs": [
						{
							"internalType": "uint256",
							"name": "",
							"type": "uint256"
						}
					],
					"stateMutability": "view",
					"type": "function"
				}
			],
			"devdoc": {
				"kind": "dev",
				"methods": {},
				"version": 1
			},
			"evm": {
				"assembly": "    /* \"Legi-o/Legi-o.solc/contracts/economia-de-gas.sol\":78:1322  contract GasGolf {... */\n  mstore(0x40, 0x80)\n  callvalue\n  dup1\n  iszero\n  tag_1\n  jumpi\n  0x00\n  dup1\n  revert\ntag_1:\n  pop\n  dataSize(sub_0)\n  dup1\n  dataOffset(sub_0)\n  0x00\n  codecopy\n  0x00\n  return\nstop\n\nsub_0: assembly {\n        /* \"Legi-o/Legi-o.solc/contracts/economia-de-gas.sol\":78:1322  contract GasGolf {... */\n      mstore(0x40, 0x80)\n      callvalue\n      dup1\n      iszero\n      tag_1\n      jumpi\n      0x00\n      dup1\n      revert\n    tag_1:\n      pop\n      jumpi(tag_2, lt(calldatasize, 0x04))\n      shr(0xe0, calldataload(0x00))\n      dup1\n      0x2ddbd13a\n      eq\n      tag_3\n      jumpi\n      dup1\n      0xc9762ec2\n      eq\n      tag_4\n      jumpi\n    tag_2:\n      0x00\n      dup1\n      revert\n        /* \"Legi-o/Legi-o.solc/contracts/economia-de-gas.sol\":456:473  uint public total */\n    tag_3:\n      tag_5\n      tag_6\n      jump\t// in\n    tag_5:\n      mload(0x40)\n      tag_7\n      swap2\n      swap1\n      tag_8\n      jump\t// in\n    tag_7:\n      mload(0x40)\n      dup1\n      swap2\n      sub\n      swap1\n      return\n        /* \"Legi-o/Legi-o.solc/contracts/economia-de-gas.sol\":935:1320  function sumIfEvenAndLessThan99(uint[] calldata nums) external {... */\n    tag_4:\n      tag_9\n      0x04\n      dup1\n      calldatasize\n      sub\n      dup2\n      add\n      swap1\n      tag_10\n      swap2\n      swap1\n      tag_11\n      jump\t// in\n    tag_10:\n      tag_12\n      jump\t// in\n    tag_9:\n      stop\n        /* \"Legi-o/Legi-o.solc/contracts/economia-de-gas.sol\":456:473  uint public total */\n    tag_6:\n      sload(0x00)\n      dup2\n      jump\t// out\n        /* \"Legi-o/Legi-o.solc/contracts/economia-de-gas.sol\":935:1320  function sumIfEvenAndLessThan99(uint[] calldata nums) external {... */\n    tag_12:\n        /* \"Legi-o/Legi-o.solc/contracts/economia-de-gas.sol\":1008:1019  uint _total */\n      0x00\n        /* \"Legi-o/Legi-o.solc/contracts/economia-de-gas.sol\":1022:1027  total */\n      dup1\n      sload\n        /* \"Legi-o/Legi-o.solc/contracts/economia-de-gas.sol\":1008:1027  uint _total = total */\n      swap1\n      pop\n        /* \"Legi-o/Legi-o.solc/contracts/economia-de-gas.sol\":1037:1045  uint len */\n      0x00\n        /* \"Legi-o/Legi-o.solc/contracts/economia-de-gas.sol\":1048:1052  nums */\n      dup4\n      dup4\n        /* \"Legi-o/Legi-o.solc/contracts/economia-de-gas.sol\":1048:1059  nums.length */\n      swap1\n      pop\n        /* \"Legi-o/Legi-o.solc/contracts/economia-de-gas.sol\":1037:1059  uint len = nums.length */\n      swap1\n      pop\n        /* \"Legi-o/Legi-o.solc/contracts/economia-de-gas.sol\":1075:1081  uint i */\n      0x00\n        /* \"Legi-o/Legi-o.solc/contracts/economia-de-gas.sol\":1070:1289  for (uint i = 0; i < len; ) {... */\n    tag_14:\n        /* \"Legi-o/Legi-o.solc/contracts/economia-de-gas.sol\":1091:1094  len */\n      dup2\n        /* \"Legi-o/Legi-o.solc/contracts/economia-de-gas.sol\":1087:1088  i */\n      dup2\n        /* \"Legi-o/Legi-o.solc/contracts/economia-de-gas.sol\":1087:1094  i < len */\n      lt\n        /* \"Legi-o/Legi-o.solc/contracts/economia-de-gas.sol\":1070:1289  for (uint i = 0; i < len; ) {... */\n      iszero\n      tag_15\n      jumpi\n        /* \"Legi-o/Legi-o.solc/contracts/economia-de-gas.sol\":1112:1120  uint num */\n      0x00\n        /* \"Legi-o/Legi-o.solc/contracts/economia-de-gas.sol\":1123:1127  nums */\n      dup6\n      dup6\n        /* \"Legi-o/Legi-o.solc/contracts/economia-de-gas.sol\":1128:1129  i */\n      dup4\n        /* \"Legi-o/Legi-o.solc/contracts/economia-de-gas.sol\":1123:1130  nums[i] */\n      dup2\n      dup2\n      lt\n      tag_17\n      jumpi\n      tag_18\n      tag_19\n      jump\t// in\n    tag_18:\n    tag_17:\n      swap1\n      pop\n      0x20\n      mul\n      add\n      calldataload\n        /* \"Legi-o/Legi-o.solc/contracts/economia-de-gas.sol\":1112:1130  uint num = nums[i] */\n      swap1\n      pop\n        /* \"Legi-o/Legi-o.solc/contracts/economia-de-gas.sol\":1159:1160  0 */\n      0x00\n        /* \"Legi-o/Legi-o.solc/contracts/economia-de-gas.sol\":1154:1155  2 */\n      0x02\n        /* \"Legi-o/Legi-o.solc/contracts/economia-de-gas.sol\":1148:1151  num */\n      dup3\n        /* \"Legi-o/Legi-o.solc/contracts/economia-de-gas.sol\":1148:1155  num % 2 */\n      tag_20\n      swap2\n      swap1\n      tag_21\n      jump\t// in\n    tag_20:\n        /* \"Legi-o/Legi-o.solc/contracts/economia-de-gas.sol\":1148:1160  num % 2 == 0 */\n      eq\n        /* \"Legi-o/Legi-o.solc/contracts/economia-de-gas.sol\":1148:1172  num % 2 == 0 && num < 99 */\n      dup1\n      iszero\n      tag_22\n      jumpi\n      pop\n        /* \"Legi-o/Legi-o.solc/contracts/economia-de-gas.sol\":1170:1172  99 */\n      0x63\n        /* \"Legi-o/Legi-o.solc/contracts/economia-de-gas.sol\":1164:1167  num */\n      dup2\n        /* \"Legi-o/Legi-o.solc/contracts/economia-de-gas.sol\":1164:1172  num < 99 */\n      lt\n        /* \"Legi-o/Legi-o.solc/contracts/economia-de-gas.sol\":1148:1172  num % 2 == 0 && num < 99 */\n    tag_22:\n        /* \"Legi-o/Legi-o.solc/contracts/economia-de-gas.sol\":1144:1220  if (num % 2 == 0 && num < 99) {... */\n      iszero\n      tag_23\n      jumpi\n        /* \"Legi-o/Legi-o.solc/contracts/economia-de-gas.sol\":1202:1205  num */\n      dup1\n        /* \"Legi-o/Legi-o.solc/contracts/economia-de-gas.sol\":1192:1205  _total += num */\n      dup5\n      tag_24\n      swap2\n      swap1\n      tag_25\n      jump\t// in\n    tag_24:\n      swap4\n      pop\n        /* \"Legi-o/Legi-o.solc/contracts/economia-de-gas.sol\":1144:1220  if (num % 2 == 0 && num < 99) {... */\n    tag_23:\n        /* \"Legi-o/Legi-o.solc/contracts/economia-de-gas.sol\":1261:1264  ++i */\n      dup2\n      0x01\n      add\n      swap2\n      pop\n        /* \"Legi-o/Legi-o.solc/contracts/economia-de-gas.sol\":1098:1289  {... */\n      pop\n        /* \"Legi-o/Legi-o.solc/contracts/economia-de-gas.sol\":1070:1289  for (uint i = 0; i < len; ) {... */\n      jump(tag_14)\n    tag_15:\n      pop\n        /* \"Legi-o/Legi-o.solc/contracts/economia-de-gas.sol\":1307:1313  _total */\n      dup2\n        /* \"Legi-o/Legi-o.solc/contracts/economia-de-gas.sol\":1299:1304  total */\n      0x00\n        /* \"Legi-o/Legi-o.solc/contracts/economia-de-gas.sol\":1299:1313  total = _total */\n      dup2\n      swap1\n      sstore\n      pop\n        /* \"Legi-o/Legi-o.solc/contracts/economia-de-gas.sol\":998:1320  {... */\n      pop\n      pop\n        /* \"Legi-o/Legi-o.solc/contracts/economia-de-gas.sol\":935:1320  function sumIfEvenAndLessThan99(uint[] calldata nums) external {... */\n      pop\n      pop\n      jump\t// out\n        /* \"#utility.yul\":7:84   */\n    tag_26:\n        /* \"#utility.yul\":44:51   */\n      0x00\n        /* \"#utility.yul\":73:78   */\n      dup2\n        /* \"#utility.yul\":62:78   */\n      swap1\n      pop\n        /* \"#utility.yul\":7:84   */\n      swap2\n      swap1\n      pop\n      jump\t// out\n        /* \"#utility.yul\":90:208   */\n    tag_27:\n        /* \"#utility.yul\":177:201   */\n      tag_40\n        /* \"#utility.yul\":195:200   */\n      dup2\n        /* \"#utility.yul\":177:201   */\n      tag_26\n      jump\t// in\n    tag_40:\n        /* \"#utility.yul\":172:175   */\n      dup3\n        /* \"#utility.yul\":165:202   */\n      mstore\n        /* \"#utility.yul\":90:208   */\n      pop\n      pop\n      jump\t// out\n        /* \"#utility.yul\":214:436   */\n    tag_8:\n        /* \"#utility.yul\":307:311   */\n      0x00\n        /* \"#utility.yul\":345:347   */\n      0x20\n        /* \"#utility.yul\":334:343   */\n      dup3\n        /* \"#utility.yul\":330:348   */\n      add\n        /* \"#utility.yul\":322:348   */\n      swap1\n      pop\n        /* \"#utility.yul\":358:429   */\n      tag_42\n        /* \"#utility.yul\":426:427   */\n      0x00\n        /* \"#utility.yul\":415:424   */\n      dup4\n        /* \"#utility.yul\":411:428   */\n      add\n        /* \"#utility.yul\":402:408   */\n      dup5\n        /* \"#utility.yul\":358:429   */\n      tag_27\n      jump\t// in\n    tag_42:\n        /* \"#utility.yul\":214:436   */\n      swap3\n      swap2\n      pop\n      pop\n      jump\t// out\n        /* \"#utility.yul\":523:640   */\n    tag_29:\n        /* \"#utility.yul\":632:633   */\n      0x00\n        /* \"#utility.yul\":629:630   */\n      dup1\n        /* \"#utility.yul\":622:634   */\n      revert\n        /* \"#utility.yul\":646:763   */\n    tag_30:\n        /* \"#utility.yul\":755:756   */\n      0x00\n        /* \"#utility.yul\":752:753   */\n      dup1\n        /* \"#utility.yul\":745:757   */\n      revert\n        /* \"#utility.yul\":769:886   */\n    tag_31:\n        /* \"#utility.yul\":878:879   */\n      0x00\n        /* \"#utility.yul\":875:876   */\n      dup1\n        /* \"#utility.yul\":868:880   */\n      revert\n        /* \"#utility.yul\":892:1009   */\n    tag_32:\n        /* \"#utility.yul\":1001:1002   */\n      0x00\n        /* \"#utility.yul\":998:999   */\n      dup1\n        /* \"#utility.yul\":991:1003   */\n      revert\n        /* \"#utility.yul\":1015:1132   */\n    tag_33:\n        /* \"#utility.yul\":1124:1125   */\n      0x00\n        /* \"#utility.yul\":1121:1122   */\n      dup1\n        /* \"#utility.yul\":1114:1126   */\n      revert\n        /* \"#utility.yul\":1155:1723   */\n    tag_34:\n        /* \"#utility.yul\":1228:1236   */\n      0x00\n        /* \"#utility.yul\":1238:1244   */\n      dup1\n        /* \"#utility.yul\":1288:1291   */\n      dup4\n        /* \"#utility.yul\":1281:1285   */\n      0x1f\n        /* \"#utility.yul\":1273:1279   */\n      dup5\n        /* \"#utility.yul\":1269:1286   */\n      add\n        /* \"#utility.yul\":1265:1292   */\n      slt\n        /* \"#utility.yul\":1255:1377   */\n      tag_50\n      jumpi\n        /* \"#utility.yul\":1296:1375   */\n      tag_51\n      tag_31\n      jump\t// in\n    tag_51:\n        /* \"#utility.yul\":1255:1377   */\n    tag_50:\n        /* \"#utility.yul\":1409:1415   */\n      dup3\n        /* \"#utility.yul\":1396:1416   */\n      calldataload\n        /* \"#utility.yul\":1386:1416   */\n      swap1\n      pop\n        /* \"#utility.yul\":1439:1457   */\n      0xffffffffffffffff\n        /* \"#utility.yul\":1431:1437   */\n      dup2\n        /* \"#utility.yul\":1428:1458   */\n      gt\n        /* \"#utility.yul\":1425:1542   */\n      iszero\n      tag_52\n      jumpi\n        /* \"#utility.yul\":1461:1540   */\n      tag_53\n      tag_32\n      jump\t// in\n    tag_53:\n        /* \"#utility.yul\":1425:1542   */\n    tag_52:\n        /* \"#utility.yul\":1575:1579   */\n      0x20\n        /* \"#utility.yul\":1567:1573   */\n      dup4\n        /* \"#utility.yul\":1563:1580   */\n      add\n        /* \"#utility.yul\":1551:1580   */\n      swap2\n      pop\n        /* \"#utility.yul\":1629:1632   */\n      dup4\n        /* \"#utility.yul\":1621:1625   */\n      0x20\n        /* \"#utility.yul\":1613:1619   */\n      dup3\n        /* \"#utility.yul\":1609:1626   */\n      mul\n        /* \"#utility.yul\":1599:1607   */\n      dup4\n        /* \"#utility.yul\":1595:1627   */\n      add\n        /* \"#utility.yul\":1592:1633   */\n      gt\n        /* \"#utility.yul\":1589:1717   */\n      iszero\n      tag_54\n      jumpi\n        /* \"#utility.yul\":1636:1715   */\n      tag_55\n      tag_33\n      jump\t// in\n    tag_55:\n        /* \"#utility.yul\":1589:1717   */\n    tag_54:\n        /* \"#utility.yul\":1155:1723   */\n      swap3\n      pop\n      swap3\n      swap1\n      pop\n      jump\t// out\n        /* \"#utility.yul\":1729:2288   */\n    tag_11:\n        /* \"#utility.yul\":1815:1821   */\n      0x00\n        /* \"#utility.yul\":1823:1829   */\n      dup1\n        /* \"#utility.yul\":1872:1874   */\n      0x20\n        /* \"#utility.yul\":1860:1869   */\n      dup4\n        /* \"#utility.yul\":1851:1858   */\n      dup6\n        /* \"#utility.yul\":1847:1870   */\n      sub\n        /* \"#utility.yul\":1843:1875   */\n      slt\n        /* \"#utility.yul\":1840:1959   */\n      iszero\n      tag_57\n      jumpi\n        /* \"#utility.yul\":1878:1957   */\n      tag_58\n      tag_29\n      jump\t// in\n    tag_58:\n        /* \"#utility.yul\":1840:1959   */\n    tag_57:\n        /* \"#utility.yul\":2026:2027   */\n      0x00\n        /* \"#utility.yul\":2015:2024   */\n      dup4\n        /* \"#utility.yul\":2011:2028   */\n      add\n        /* \"#utility.yul\":1998:2029   */\n      calldataload\n        /* \"#utility.yul\":2056:2074   */\n      0xffffffffffffffff\n        /* \"#utility.yul\":2048:2054   */\n      dup2\n        /* \"#utility.yul\":2045:2075   */\n      gt\n        /* \"#utility.yul\":2042:2159   */\n      iszero\n      tag_59\n      jumpi\n        /* \"#utility.yul\":2078:2157   */\n      tag_60\n      tag_30\n      jump\t// in\n    tag_60:\n        /* \"#utility.yul\":2042:2159   */\n    tag_59:\n        /* \"#utility.yul\":2191:2271   */\n      tag_61\n        /* \"#utility.yul\":2263:2270   */\n      dup6\n        /* \"#utility.yul\":2254:2260   */\n      dup3\n        /* \"#utility.yul\":2243:2252   */\n      dup7\n        /* \"#utility.yul\":2239:2261   */\n      add\n        /* \"#utility.yul\":2191:2271   */\n      tag_34\n      jump\t// in\n    tag_61:\n        /* \"#utility.yul\":2173:2271   */\n      swap3\n      pop\n      swap3\n      pop\n        /* \"#utility.yul\":1969:2281   */\n      pop\n        /* \"#utility.yul\":1729:2288   */\n      swap3\n      pop\n      swap3\n      swap1\n      pop\n      jump\t// out\n        /* \"#utility.yul\":2294:2474   */\n    tag_19:\n        /* \"#utility.yul\":2342:2419   */\n      0x4e487b7100000000000000000000000000000000000000000000000000000000\n        /* \"#utility.yul\":2339:2340   */\n      0x00\n        /* \"#utility.yul\":2332:2420   */\n      mstore\n        /* \"#utility.yul\":2439:2443   */\n      0x32\n        /* \"#utility.yul\":2436:2437   */\n      0x04\n        /* \"#utility.yul\":2429:2444   */\n      mstore\n        /* \"#utility.yul\":2463:2467   */\n      0x24\n        /* \"#utility.yul\":2460:2461   */\n      0x00\n        /* \"#utility.yul\":2453:2468   */\n      revert\n        /* \"#utility.yul\":2480:2660   */\n    tag_35:\n        /* \"#utility.yul\":2528:2605   */\n      0x4e487b7100000000000000000000000000000000000000000000000000000000\n        /* \"#utility.yul\":2525:2526   */\n      0x00\n        /* \"#utility.yul\":2518:2606   */\n      mstore\n        /* \"#utility.yul\":2625:2629   */\n      0x12\n        /* \"#utility.yul\":2622:2623   */\n      0x04\n        /* \"#utility.yul\":2615:2630   */\n      mstore\n        /* \"#utility.yul\":2649:2653   */\n      0x24\n        /* \"#utility.yul\":2646:2647   */\n      0x00\n        /* \"#utility.yul\":2639:2654   */\n      revert\n        /* \"#utility.yul\":2666:2842   */\n    tag_21:\n        /* \"#utility.yul\":2698:2699   */\n      0x00\n        /* \"#utility.yul\":2715:2735   */\n      tag_65\n        /* \"#utility.yul\":2733:2734   */\n      dup3\n        /* \"#utility.yul\":2715:2735   */\n      tag_26\n      jump\t// in\n    tag_65:\n        /* \"#utility.yul\":2710:2735   */\n      swap2\n      pop\n        /* \"#utility.yul\":2749:2769   */\n      tag_66\n        /* \"#utility.yul\":2767:2768   */\n      dup4\n        /* \"#utility.yul\":2749:2769   */\n      tag_26\n      jump\t// in\n    tag_66:\n        /* \"#utility.yul\":2744:2769   */\n      swap3\n      pop\n        /* \"#utility.yul\":2788:2789   */\n      dup3\n        /* \"#utility.yul\":2778:2813   */\n      tag_67\n      jumpi\n        /* \"#utility.yul\":2793:2811   */\n      tag_68\n      tag_35\n      jump\t// in\n    tag_68:\n        /* \"#utility.yul\":2778:2813   */\n    tag_67:\n        /* \"#utility.yul\":2834:2835   */\n      dup3\n        /* \"#utility.yul\":2831:2832   */\n      dup3\n        /* \"#utility.yul\":2827:2836   */\n      mod\n        /* \"#utility.yul\":2822:2836   */\n      swap1\n      pop\n        /* \"#utility.yul\":2666:2842   */\n      swap3\n      swap2\n      pop\n      pop\n      jump\t// out\n        /* \"#utility.yul\":2848:3028   */\n    tag_36:\n        /* \"#utility.yul\":2896:2973   */\n      0x4e487b7100000000000000000000000000000000000000000000000000000000\n        /* \"#utility.yul\":2893:2894   */\n      0x00\n        /* \"#utility.yul\":2886:2974   */\n      mstore\n        /* \"#utility.yul\":2993:2997   */\n      0x11\n        /* \"#utility.yul\":2990:2991   */\n      0x04\n        /* \"#utility.yul\":2983:2998   */\n      mstore\n        /* \"#utility.yul\":3017:3021   */\n      0x24\n        /* \"#utility.yul\":3014:3015   */\n      0x00\n        /* \"#utility.yul\":3007:3022   */\n      revert\n        /* \"#utility.yul\":3034:3225   */\n    tag_25:\n        /* \"#utility.yul\":3074:3077   */\n      0x00\n        /* \"#utility.yul\":3093:3113   */\n      tag_71\n        /* \"#utility.yul\":3111:3112   */\n      dup3\n        /* \"#utility.yul\":3093:3113   */\n      tag_26\n      jump\t// in\n    tag_71:\n        /* \"#utility.yul\":3088:3113   */\n      swap2\n      pop\n        /* \"#utility.yul\":3127:3147   */\n      tag_72\n        /* \"#utility.yul\":3145:3146   */\n      dup4\n        /* \"#utility.yul\":3127:3147   */\n      tag_26\n      jump\t// in\n    tag_72:\n        /* \"#utility.yul\":3122:3147   */\n      swap3\n      pop\n        /* \"#utility.yul\":3170:3171   */\n      dup3\n        /* \"#utility.yul\":3167:3168   */\n      dup3\n        /* \"#utility.yul\":3163:3172   */\n      add\n        /* \"#utility.yul\":3156:3172   */\n      swap1\n      pop\n        /* \"#utility.yul\":3191:3194   */\n      dup1\n        /* \"#utility.yul\":3188:3189   */\n      dup3\n        /* \"#utility.yul\":3185:3195   */\n      gt\n        /* \"#utility.yul\":3182:3218   */\n      iszero\n      tag_73\n      jumpi\n        /* \"#utility.yul\":3198:3216   */\n      tag_74\n      tag_36\n      jump\t// in\n    tag_74:\n        /* \"#utility.yul\":3182:3218   */\n    tag_73:\n        /* \"#utility.yul\":3034:3225   */\n      swap3\n      swap2\n      pop\n      pop\n      jump\t// out\n\n    auxdata: 0xa2646970667358221220103e8c22070313ecdc5d09ee9b7d54563931ddaab0460cfe830711262bb8737e64736f6c63430008190033\n}\n",
				"bytecode": {
					"linkReferences": {},
					"object": "6080604052348015600e575f80fd5b506102f78061001c5f395ff3fe608060405234801561000f575f80fd5b5060043610610034575f3560e01c80632ddbd13a14610038578063c9762ec214610056575b5f80fd5b610040610072565b60405161004d919061010a565b60405180910390f35b610070600480360381019061006b919061018c565b610077565b005b5f5481565b5f805490505f8383905090505f5b818110156100e5575f8585838181106100a1576100a06101d7565b5b9050602002013590505f6002826100b89190610231565b1480156100c55750606381105b156100d95780846100d6919061028e565b93505b81600101915050610085565b50815f8190555050505050565b5f819050919050565b610104816100f2565b82525050565b5f60208201905061011d5f8301846100fb565b92915050565b5f80fd5b5f80fd5b5f80fd5b5f80fd5b5f80fd5b5f8083601f84011261014c5761014b61012b565b5b8235905067ffffffffffffffff8111156101695761016861012f565b5b60208301915083602082028301111561018557610184610133565b5b9250929050565b5f80602083850312156101a2576101a1610123565b5b5f83013567ffffffffffffffff8111156101bf576101be610127565b5b6101cb85828601610137565b92509250509250929050565b7f4e487b71000000000000000000000000000000000000000000000000000000005f52603260045260245ffd5b7f4e487b71000000000000000000000000000000000000000000000000000000005f52601260045260245ffd5b5f61023b826100f2565b9150610246836100f2565b92508261025657610255610204565b5b828206905092915050565b7f4e487b71000000000000000000000000000000000000000000000000000000005f52601160045260245ffd5b5f610298826100f2565b91506102a3836100f2565b92508282019050808211156102bb576102ba610261565b5b9291505056fea2646970667358221220103e8c22070313ecdc5d09ee9b7d54563931ddaab0460cfe830711262bb8737e64736f6c63430008190033",
					"opcodes": "PUSH1 0x80 PUSH1 0x40 MSTORE CALLVALUE DUP1 ISZERO PUSH1 0xE JUMPI PUSH0 DUP1 REVERT JUMPDEST POP PUSH2 0x2F7 DUP1 PUSH2 0x1C PUSH0 CODECOPY PUSH0 RETURN INVALID PUSH1 0x80 PUSH1 0x40 MSTORE CALLVALUE DUP1 ISZERO PUSH2 0xF JUMPI PUSH0 DUP1 REVERT JUMPDEST POP PUSH1 0x4 CALLDATASIZE LT PUSH2 0x34 JUMPI PUSH0 CALLDATALOAD PUSH1 0xE0 SHR DUP1 PUSH4 0x2DDBD13A EQ PUSH2 0x38 JUMPI DUP1 PUSH4 0xC9762EC2 EQ PUSH2 0x56 JUMPI JUMPDEST PUSH0 DUP1 REVERT JUMPDEST PUSH2 0x40 PUSH2 0x72 JUMP JUMPDEST PUSH1 0x40 MLOAD PUSH2 0x4D SWAP2 SWAP1 PUSH2 0x10A JUMP JUMPDEST PUSH1 0x40 MLOAD DUP1 SWAP2 SUB SWAP1 RETURN JUMPDEST PUSH2 0x70 PUSH1 0x4 DUP1 CALLDATASIZE SUB DUP2 ADD SWAP1 PUSH2 0x6B SWAP2 SWAP1 PUSH2 0x18C JUMP JUMPDEST PUSH2 0x77 JUMP JUMPDEST STOP JUMPDEST PUSH0 SLOAD DUP2 JUMP JUMPDEST PUSH0 DUP1 SLOAD SWAP1 POP PUSH0 DUP4 DUP4 SWAP1 POP SWAP1 POP PUSH0 JUMPDEST DUP2 DUP2 LT ISZERO PUSH2 0xE5 JUMPI PUSH0 DUP6 DUP6 DUP4 DUP2 DUP2 LT PUSH2 0xA1 JUMPI PUSH2 0xA0 PUSH2 0x1D7 JUMP JUMPDEST JUMPDEST SWAP1 POP PUSH1 0x20 MUL ADD CALLDATALOAD SWAP1 POP PUSH0 PUSH1 0x2 DUP3 PUSH2 0xB8 SWAP2 SWAP1 PUSH2 0x231 JUMP JUMPDEST EQ DUP1 ISZERO PUSH2 0xC5 JUMPI POP PUSH1 0x63 DUP2 LT JUMPDEST ISZERO PUSH2 0xD9 JUMPI DUP1 DUP5 PUSH2 0xD6 SWAP2 SWAP1 PUSH2 0x28E JUMP JUMPDEST SWAP4 POP JUMPDEST DUP2 PUSH1 0x1 ADD SWAP2 POP POP PUSH2 0x85 JUMP JUMPDEST POP DUP2 PUSH0 DUP2 SWAP1 SSTORE POP POP POP POP POP JUMP JUMPDEST PUSH0 DUP2 SWAP1 POP SWAP2 SWAP1 POP JUMP JUMPDEST PUSH2 0x104 DUP2 PUSH2 0xF2 JUMP JUMPDEST DUP3 MSTORE POP POP JUMP JUMPDEST PUSH0 PUSH1 0x20 DUP3 ADD SWAP1 POP PUSH2 0x11D PUSH0 DUP4 ADD DUP5 PUSH2 0xFB JUMP JUMPDEST SWAP3 SWAP2 POP POP JUMP JUMPDEST PUSH0 DUP1 REVERT JUMPDEST PUSH0 DUP1 REVERT JUMPDEST PUSH0 DUP1 REVERT JUMPDEST PUSH0 DUP1 REVERT JUMPDEST PUSH0 DUP1 REVERT JUMPDEST PUSH0 DUP1 DUP4 PUSH1 0x1F DUP5 ADD SLT PUSH2 0x14C JUMPI PUSH2 0x14B PUSH2 0x12B JUMP JUMPDEST JUMPDEST DUP3 CALLDATALOAD SWAP1 POP PUSH8 0xFFFFFFFFFFFFFFFF DUP2 GT ISZERO PUSH2 0x169 JUMPI PUSH2 0x168 PUSH2 0x12F JUMP JUMPDEST JUMPDEST PUSH1 0x20 DUP4 ADD SWAP2 POP DUP4 PUSH1 0x20 DUP3 MUL DUP4 ADD GT ISZERO PUSH2 0x185 JUMPI PUSH2 0x184 PUSH2 0x133 JUMP JUMPDEST JUMPDEST SWAP3 POP SWAP3 SWAP1 POP JUMP JUMPDEST PUSH0 DUP1 PUSH1 0x20 DUP4 DUP6 SUB SLT ISZERO PUSH2 0x1A2 JUMPI PUSH2 0x1A1 PUSH2 0x123 JUMP JUMPDEST JUMPDEST PUSH0 DUP4 ADD CALLDATALOAD PUSH8 0xFFFFFFFFFFFFFFFF DUP2 GT ISZERO PUSH2 0x1BF JUMPI PUSH2 0x1BE PUSH2 0x127 JUMP JUMPDEST JUMPDEST PUSH2 0x1CB DUP6 DUP3 DUP7 ADD PUSH2 0x137 JUMP JUMPDEST SWAP3 POP SWAP3 POP POP SWAP3 POP SWAP3 SWAP1 POP JUMP JUMPDEST PUSH32 0x4E487B7100000000000000000000000000000000000000000000000000000000 PUSH0 MSTORE PUSH1 0x32 PUSH1 0x4 MSTORE PUSH1 0x24 PUSH0 REVERT JUMPDEST PUSH32 0x4E487B7100000000000000000000000000000000000000000000000000000000 PUSH0 MSTORE PUSH1 0x12 PUSH1 0x4 MSTORE PUSH1 0x24 PUSH0 REVERT JUMPDEST PUSH0 PUSH2 0x23B DUP3 PUSH2 0xF2 JUMP JUMPDEST SWAP2 POP PUSH2 0x246 DUP4 PUSH2 0xF2 JUMP JUMPDEST SWAP3 POP DUP3 PUSH2 0x256 JUMPI PUSH2 0x255 PUSH2 0x204 JUMP JUMPDEST JUMPDEST DUP3 DUP3 MOD SWAP1 POP SWAP3 SWAP2 POP POP JUMP JUMPDEST PUSH32 0x4E487B7100000000000000000000000000000000000000000000000000000000 PUSH0 MSTORE PUSH1 0x11 PUSH1 0x4 MSTORE PUSH1 0x24 PUSH0 REVERT JUMPDEST PUSH0 PUSH2 0x298 DUP3 PUSH2 0xF2 JUMP JUMPDEST SWAP2 POP PUSH2 0x2A3 DUP4 PUSH2 0xF2 JUMP JUMPDEST SWAP3 POP DUP3 DUP3 ADD SWAP1 POP DUP1 DUP3 GT ISZERO PUSH2 0x2BB JUMPI PUSH2 0x2BA PUSH2 0x261 JUMP JUMPDEST JUMPDEST SWAP3 SWAP2 POP POP JUMP INVALID LOG2 PUSH5 0x6970667358 0x22 SLT KECCAK256 LT RETURNDATACOPY DUP13 0x22 SMOD SUB SGT 0xEC 0xDC TSTORE MULMOD 0xEE SWAP12 PUSH30 0x54563931DDAAB0460CFE830711262BB8737E64736F6C6343000819003300 "
				},
				"gasEstimates": {
					"creation": {
						"codeDepositCost": "151800",
						"executionCost": "194",
						"totalCost": "151994"
					},
					"external": {
						"sumIfEvenAndLessThan99(uint256[])": "infinite",
						"total()": "2402"
					}
				},
				"methodIdentifiers": {
					"sumIfEvenAndLessThan99(uint256[])": "c9762ec2",
					"total()": "2ddbd13a"
				}
			},
			"storageLayout": {
				"storage": [
					{
						"astId": 3,
						"contract": "Legi-o/Legi-o.solc/contracts/economia-de-gas.sol:GasGolf",
						"label": "total",
						"offset": 0,
						"slot": "0",
						"type": "t_uint256"
					}
				],
				"types": {
					"t_uint256": {
						"encoding": "inplace",
						"label": "uint256",
						"numberOfBytes": "32"
					}
				}
			},
			"userdoc": {
				"kind": "user",
				"methods": {},
				"version": 1
			}
		}
	}
}